{
  "address": "0xa513E6E4b8f2a923D98304ec87F64353C4D5C853",
  "abi": [
    {
      "inputs": [],
      "stateMutability": "nonpayable",
      "type": "constructor"
    },
    {
      "inputs": [],
      "name": "cardCount",
      "outputs": [
        {
          "internalType": "uint256",
          "name": "",
          "type": "uint256"
        }
      ],
      "stateMutability": "view",
      "type": "function"
    },
    {
      "inputs": [],
      "name": "count",
      "outputs": [
        {
          "internalType": "uint256",
          "name": "",
          "type": "uint256"
        }
      ],
      "stateMutability": "view",
      "type": "function"
    },
    {
      "inputs": [
        {
          "internalType": "uint256",
          "name": "collectionId",
          "type": "uint256"
        },
        {
          "internalType": "string",
          "name": "cardName",
          "type": "string"
        },
        {
          "internalType": "string",
          "name": "imageUrl",
          "type": "string"
        }
      ],
      "name": "createCardInCollection",
      "outputs": [],
      "stateMutability": "nonpayable",
      "type": "function"
    },
    {
      "inputs": [
        {
          "internalType": "string",
          "name": "name",
          "type": "string"
        },
        {
          "internalType": "uint256",
          "name": "cardCount",
          "type": "uint256"
        },
        {
          "internalType": "string",
          "name": "imageURI",
          "type": "string"
        }
      ],
      "name": "createCollection",
      "outputs": [
        {
          "internalType": "uint256",
          "name": "",
          "type": "uint256"
        }
      ],
      "stateMutability": "nonpayable",
      "type": "function"
    },
    {
      "inputs": [],
      "name": "getAllCard",
      "outputs": [
        {
          "internalType": "uint256",
          "name": "",
          "type": "uint256"
        }
      ],
      "stateMutability": "view",
      "type": "function"
    },
    {
      "inputs": [],
      "name": "getAllCollections",
      "outputs": [
        {
          "internalType": "contract Collection[]",
          "name": "",
          "type": "address[]"
        }
      ],
      "stateMutability": "view",
      "type": "function"
    },
    {
      "inputs": [
        {
          "internalType": "contract Card",
          "name": "_card",
          "type": "address"
        }
      ],
      "name": "getCardInfo",
      "outputs": [
        {
          "internalType": "uint256",
          "name": "",
          "type": "uint256"
        },
        {
          "internalType": "string",
          "name": "",
          "type": "string"
        },
        {
          "internalType": "string",
          "name": "",
          "type": "string"
        }
      ],
      "stateMutability": "view",
      "type": "function"
    },
    {
      "inputs": [
        {
          "internalType": "uint256",
          "name": "id",
          "type": "uint256"
        }
      ],
      "name": "getCardInfoById",
      "outputs": [
        {
          "internalType": "string",
          "name": "",
          "type": "string"
        },
        {
          "internalType": "string",
          "name": "",
          "type": "string"
        },
        {
          "internalType": "uint256",
          "name": "",
          "type": "uint256"
        }
      ],
      "stateMutability": "view",
      "type": "function"
    },
    {
      "inputs": [
        {
          "internalType": "uint256",
          "name": "collectionId",
          "type": "uint256"
        }
      ],
      "name": "getCardOfCollection",
      "outputs": [
        {
          "internalType": "contract Card[]",
          "name": "",
          "type": "address[]"
        }
      ],
      "stateMutability": "view",
      "type": "function"
    },
    {
      "inputs": [
        {
          "internalType": "contract Collection",
          "name": "_collection",
          "type": "address"
        }
      ],
      "name": "getCollection",
      "outputs": [
        {
          "internalType": "uint256",
          "name": "",
          "type": "uint256"
        },
        {
          "internalType": "string",
          "name": "",
          "type": "string"
        },
        {
          "internalType": "uint256",
          "name": "",
          "type": "uint256"
        },
        {
          "internalType": "string",
          "name": "",
          "type": "string"
        }
      ],
      "stateMutability": "view",
      "type": "function"
    },
    {
      "inputs": [
        {
          "internalType": "uint256",
          "name": "idCard",
          "type": "uint256"
        }
      ],
      "name": "getOwnerOf",
      "outputs": [
        {
          "internalType": "address",
          "name": "",
          "type": "address"
        }
      ],
      "stateMutability": "view",
      "type": "function"
    },
    {
      "inputs": [
        {
          "internalType": "uint256",
          "name": "cardId",
          "type": "uint256"
        },
        {
          "internalType": "address",
          "name": "to",
          "type": "address"
        }
      ],
      "name": "transferCard",
      "outputs": [],
      "stateMutability": "nonpayable",
      "type": "function"
    }
  ],
  "transactionHash": "0x1e7b3d5c79523e8fa10fd4a272562a10dc9a06f4928911a47aef2dd846dd1818",
  "args": [],
  "numDeployments": 5,
  "solcInputHash": "d54279c005c26574508daa0132a8a57f",
  "bytecode": "0x608060405234801561001057600080fd5b5073f39fd6e51aad88f6f4ce6ab8827279cfffb922666000806101000a81548173ffffffffffffffffffffffffffffffffffffffff021916908373ffffffffffffffffffffffffffffffffffffffff16021790555060006001819055506000600281905550615681806100846000396000f3fe60806040523480156200001157600080fd5b5060043610620000c45760003560e01c806370e19352116200007b57806370e1935214620001bd57806372f79d2414620001f557806383638710146200021557806387a815b5146200024b578063e40de8871462000281578063ffd4f7df14620002ba57620000c4565b806306661abd14620000c957806313fa6eaf14620000eb5780631b6cde101462000121578063204ec5fc14620001435780633afffc9714620001635780636804a958146200019b575b600080fd5b620000d3620002dc565b604051620000e2919062001276565b60405180910390f35b620001096004803603810190620001039190620012d8565b620002e2565b60405162000118919062001452565b60405180910390f35b6200012b620004cb565b6040516200013a919062001276565b60405180910390f35b6200016160048036038101906200015b9190620015d8565b620004d1565b005b6200018160048036038101906200017b9190620012d8565b62000761565b6040516200019293929190620016fb565b60405180910390f35b620001a5620008c8565b604051620001b4919062001817565b60405180910390f35b620001db6004803603810190620001d5919062001894565b62000a5e565b604051620001ec93929190620018c6565b60405180910390f35b6200021360048036038101906200020d919062001942565b62000c61565b005b6200023360048036038101906200022d9190620012d8565b62000db0565b6040516200024291906200199a565b60405180910390f35b62000269600480360381019062000263919062001a20565b62000e6b565b60405162000278919062001276565b60405180910390f35b6200029f600480360381019062000299919062001b04565b62000fc9565b604051620002b1949392919062001b36565b60405180910390f35b620002c462001243565b604051620002d3919062001276565b60405180910390f35b60015481565b606060008054906101000a900473ffffffffffffffffffffffffffffffffffffffff1673ffffffffffffffffffffffffffffffffffffffff163373ffffffffffffffffffffffffffffffffffffffff161462000375576040517f08c379a00000000000000000000000000000000000000000000000000000000081526004016200036c9062001c07565b60405180910390fd5b600073ffffffffffffffffffffffffffffffffffffffff166003600084815260200190815260200160002060009054906101000a900473ffffffffffffffffffffffffffffffffffffffff1673ffffffffffffffffffffffffffffffffffffffff16036200041a576040517f08c379a0000000000000000000000000000000000000000000000000000000008152600401620004119062001c79565b60405180910390fd5b6003600083815260200190815260200160002060009054906101000a900473ffffffffffffffffffffffffffffffffffffffff1673ffffffffffffffffffffffffffffffffffffffff1663b0df9e536040518163ffffffff1660e01b8152600401600060405180830381865afa15801562000499573d6000803e3d6000fd5b505050506040513d6000823e3d601f19601f82011682018060405250810190620004c4919062001d88565b9050919050565b60025481565b60008054906101000a900473ffffffffffffffffffffffffffffffffffffffff1673ffffffffffffffffffffffffffffffffffffffff163373ffffffffffffffffffffffffffffffffffffffff161462000562576040517f08c379a0000000000000000000000000000000000000000000000000000000008152600401620005599062001c07565b60405180910390fd5b600073ffffffffffffffffffffffffffffffffffffffff166003600085815260200190815260200160002060009054906101000a900473ffffffffffffffffffffffffffffffffffffffff1673ffffffffffffffffffffffffffffffffffffffff160362000607576040517f08c379a0000000000000000000000000000000000000000000000000000000008152600401620005fe9062001e29565b60405180910390fd5b60006003600085815260200190815260200160002060009054906101000a900473ffffffffffffffffffffffffffffffffffffffff16905060008173ffffffffffffffffffffffffffffffffffffffff1663ca805ace858560025460008054906101000a900473ffffffffffffffffffffffffffffffffffffffff166040518563ffffffff1660e01b8152600401620006a4949392919062001e4b565b6020604051808303816000875af1158015620006c4573d6000803e3d6000fd5b505050506040513d601f19601f82011682018060405250810190620006ea919062001ea6565b90508060046000600254815260200190815260200160002060006101000a81548173ffffffffffffffffffffffffffffffffffffffff021916908373ffffffffffffffffffffffffffffffffffffffff16021790555060026000815480929190620007559062001f07565b91905055505050505050565b60608060006004600085815260200190815260200160002060009054906101000a900473ffffffffffffffffffffffffffffffffffffffff1673ffffffffffffffffffffffffffffffffffffffff16637d6152276040518163ffffffff1660e01b8152600401600060405180830381865afa158015620007e5573d6000803e3d6000fd5b505050506040513d6000823e3d601f19601f8201168201806040525081019062000810919062001fd2565b6004600086815260200190815260200160002060009054906101000a900473ffffffffffffffffffffffffffffffffffffffff1673ffffffffffffffffffffffffffffffffffffffff1663ded7222b6040518163ffffffff1660e01b8152600401600060405180830381865afa1580156200088f573d6000803e3d6000fd5b505050506040513d6000823e3d601f19601f82011682018060405250810190620008ba919062001fd2565b859250925092509193909250565b606060008054906101000a900473ffffffffffffffffffffffffffffffffffffffff1673ffffffffffffffffffffffffffffffffffffffff163373ffffffffffffffffffffffffffffffffffffffff16146200095b576040517f08c379a0000000000000000000000000000000000000000000000000000000008152600401620009529062001c07565b60405180910390fd5b600060015467ffffffffffffffff8111156200097c576200097b62001491565b5b604051908082528060200260200182016040528015620009ab5781602001602082028036833780820191505090505b50905060005b60015481101562000a56576003600082815260200190815260200160002060009054906101000a900473ffffffffffffffffffffffffffffffffffffffff1682828151811062000a065762000a0562002023565b5b602002602001019073ffffffffffffffffffffffffffffffffffffffff16908173ffffffffffffffffffffffffffffffffffffffff1681525050808062000a4d9062001f07565b915050620009b1565b508091505090565b600060608060008054906101000a900473ffffffffffffffffffffffffffffffffffffffff1673ffffffffffffffffffffffffffffffffffffffff163373ffffffffffffffffffffffffffffffffffffffff161462000af4576040517f08c379a000000000000000000000000000000000000000000000000000000000815260040162000aeb9062001c07565b60405180910390fd5b8373ffffffffffffffffffffffffffffffffffffffff1663a541710c6040518163ffffffff1660e01b8152600401602060405180830381865afa15801562000b40573d6000803e3d6000fd5b505050506040513d601f19601f8201168201806040525081019062000b66919062002069565b8473ffffffffffffffffffffffffffffffffffffffff16637d6152276040518163ffffffff1660e01b8152600401600060405180830381865afa15801562000bb2573d6000803e3d6000fd5b505050506040513d6000823e3d601f19601f8201168201806040525081019062000bdd919062001fd2565b8573ffffffffffffffffffffffffffffffffffffffff1663ded7222b6040518163ffffffff1660e01b8152600401600060405180830381865afa15801562000c29573d6000803e3d6000fd5b505050506040513d6000823e3d601f19601f8201168201806040525081019062000c54919062001fd2565b9250925092509193909250565b600073ffffffffffffffffffffffffffffffffffffffff166004600084815260200190815260200160002060009054906101000a900473ffffffffffffffffffffffffffffffffffffffff1673ffffffffffffffffffffffffffffffffffffffff160362000d06576040517f08c379a000000000000000000000000000000000000000000000000000000000815260040162000cfd90620020eb565b60405180910390fd5b6004600083815260200190815260200160002060009054906101000a900473ffffffffffffffffffffffffffffffffffffffff1673ffffffffffffffffffffffffffffffffffffffff166323b872dd3383856040518463ffffffff1660e01b815260040162000d78939291906200210d565b600060405180830381600087803b15801562000d9357600080fd5b505af115801562000da8573d6000803e3d6000fd5b505050505050565b60006004600083815260200190815260200160002060009054906101000a900473ffffffffffffffffffffffffffffffffffffffff1673ffffffffffffffffffffffffffffffffffffffff16636352211e836040518263ffffffff1660e01b815260040162000e20919062001276565b602060405180830381865afa15801562000e3e573d6000803e3d6000fd5b505050506040513d601f19601f8201168201806040525081019062000e64919062002161565b9050919050565b60008060009054906101000a900473ffffffffffffffffffffffffffffffffffffffff1673ffffffffffffffffffffffffffffffffffffffff163373ffffffffffffffffffffffffffffffffffffffff161462000eff576040517f08c379a000000000000000000000000000000000000000000000000000000000815260040162000ef69062001c07565b60405180910390fd5b8484846001548560405162000f14906200124d565b62000f24959493929190620021c6565b604051809103906000f08015801562000f41573d6000803e3d6000fd5b5060036000600154815260200190815260200160002060006101000a81548173ffffffffffffffffffffffffffffffffffffffff021916908373ffffffffffffffffffffffffffffffffffffffff1602179055506001600081548092919062000faa9062001f07565b91905055506001805462000fbf919062002223565b9050949350505050565b600060606000606060008054906101000a900473ffffffffffffffffffffffffffffffffffffffff1673ffffffffffffffffffffffffffffffffffffffff163373ffffffffffffffffffffffffffffffffffffffff161462001062576040517f08c379a0000000000000000000000000000000000000000000000000000000008152600401620010599062001c07565b60405180910390fd5b8473ffffffffffffffffffffffffffffffffffffffff16635d1ca6316040518163ffffffff1660e01b8152600401602060405180830381865afa158015620010ae573d6000803e3d6000fd5b505050506040513d601f19601f82011682018060405250810190620010d4919062002069565b8573ffffffffffffffffffffffffffffffffffffffff166317d7de7c6040518163ffffffff1660e01b8152600401600060405180830381865afa15801562001120573d6000803e3d6000fd5b505050506040513d6000823e3d601f19601f820116820180604052508101906200114b919062001fd2565b8673ffffffffffffffffffffffffffffffffffffffff16637d6201306040518163ffffffff1660e01b8152600401602060405180830381865afa15801562001197573d6000803e3d6000fd5b505050506040513d601f19601f82011682018060405250810190620011bd919062002069565b8773ffffffffffffffffffffffffffffffffffffffff1663ded7222b6040518163ffffffff1660e01b8152600401600060405180830381865afa15801562001209573d6000803e3d6000fd5b505050506040513d6000823e3d601f19601f8201168201806040525081019062001234919062001fd2565b93509350935093509193509193565b6000600254905090565b6133ed806200225f83390190565b6000819050919050565b62001270816200125b565b82525050565b60006020820190506200128d600083018462001265565b92915050565b6000604051905090565b600080fd5b600080fd5b620012b2816200125b565b8114620012be57600080fd5b50565b600081359050620012d281620012a7565b92915050565b600060208284031215620012f157620012f06200129d565b5b60006200130184828501620012c1565b91505092915050565b600081519050919050565b600082825260208201905092915050565b6000819050602082019050919050565b600073ffffffffffffffffffffffffffffffffffffffff82169050919050565b6000819050919050565b6000620013816200137b620013758462001336565b62001356565b62001336565b9050919050565b6000620013958262001360565b9050919050565b6000620013a98262001388565b9050919050565b620013bb816200139c565b82525050565b6000620013cf8383620013b0565b60208301905092915050565b6000602082019050919050565b6000620013f5826200130a565b62001401818562001315565b93506200140e8362001326565b8060005b8381101562001445578151620014298882620013c1565b97506200143683620013db565b92505060018101905062001412565b5085935050505092915050565b600060208201905081810360008301526200146e8184620013e8565b905092915050565b600080fd5b600080fd5b6000601f19601f8301169050919050565b7f4e487b7100000000000000000000000000000000000000000000000000000000600052604160045260246000fd5b620014cb8262001480565b810181811067ffffffffffffffff82111715620014ed57620014ec62001491565b5b80604052505050565b60006200150262001293565b9050620015108282620014c0565b919050565b600067ffffffffffffffff82111562001533576200153262001491565b5b6200153e8262001480565b9050602081019050919050565b82818337600083830152505050565b6000620015716200156b8462001515565b620014f6565b90508281526020810184848401111562001590576200158f6200147b565b5b6200159d8482856200154b565b509392505050565b600082601f830112620015bd57620015bc62001476565b5b8135620015cf8482602086016200155a565b91505092915050565b600080600060608486031215620015f457620015f36200129d565b5b60006200160486828701620012c1565b935050602084013567ffffffffffffffff811115620016285762001627620012a2565b5b6200163686828701620015a5565b925050604084013567ffffffffffffffff8111156200165a5762001659620012a2565b5b6200166886828701620015a5565b9150509250925092565b600081519050919050565b600082825260208201905092915050565b60005b83811015620016ae57808201518184015260208101905062001691565b60008484015250505050565b6000620016c78262001672565b620016d381856200167d565b9350620016e58185602086016200168e565b620016f08162001480565b840191505092915050565b60006060820190508181036000830152620017178186620016ba565b905081810360208301526200172d8185620016ba565b90506200173e604083018462001265565b949350505050565b600081519050919050565b6000819050602082019050919050565b60006200176e8262001388565b9050919050565b620017808162001761565b82525050565b600062001794838362001775565b60208301905092915050565b6000602082019050919050565b6000620017ba8262001746565b620017c6818562001315565b9350620017d38362001751565b8060005b838110156200180a578151620017ee888262001786565b9750620017fb83620017a0565b925050600181019050620017d7565b5085935050505092915050565b60006020820190508181036000830152620018338184620017ad565b905092915050565b6000620018488262001336565b9050919050565b60006200185c826200183b565b9050919050565b6200186e816200184f565b81146200187a57600080fd5b50565b6000813590506200188e8162001863565b92915050565b600060208284031215620018ad57620018ac6200129d565b5b6000620018bd848285016200187d565b91505092915050565b6000606082019050620018dd600083018662001265565b8181036020830152620018f18185620016ba565b90508181036040830152620019078184620016ba565b9050949350505050565b6200191c816200183b565b81146200192857600080fd5b50565b6000813590506200193c8162001911565b92915050565b600080604083850312156200195c576200195b6200129d565b5b60006200196c85828601620012c1565b92505060206200197f858286016200192b565b9150509250929050565b62001994816200183b565b82525050565b6000602082019050620019b1600083018462001989565b92915050565b600080fd5b600080fd5b60008083601f840112620019da57620019d962001476565b5b8235905067ffffffffffffffff811115620019fa57620019f9620019b7565b5b60208301915083600182028301111562001a195762001a18620019bc565b5b9250929050565b6000806000806060858703121562001a3d5762001a3c6200129d565b5b600085013567ffffffffffffffff81111562001a5e5762001a5d620012a2565b5b62001a6c87828801620019c1565b9450945050602062001a8187828801620012c1565b925050604085013567ffffffffffffffff81111562001aa55762001aa4620012a2565b5b62001ab387828801620015a5565b91505092959194509250565b600062001acc826200183b565b9050919050565b62001ade8162001abf565b811462001aea57600080fd5b50565b60008135905062001afe8162001ad3565b92915050565b60006020828403121562001b1d5762001b1c6200129d565b5b600062001b2d8482850162001aed565b91505092915050565b600060808201905062001b4d600083018762001265565b818103602083015262001b618186620016ba565b905062001b72604083018562001265565b818103606083015262001b868184620016ba565b905095945050505050565b7f596f7520617265206e6f7420616c6c6f77656420746f2063616c6c207468697360008201527f2066756e6374696f6e2e00000000000000000000000000000000000000000000602082015250565b600062001bef602a836200167d565b915062001bfc8262001b91565b604082019050919050565b6000602082019050818103600083015262001c228162001be0565b9050919050565b7f436f6c6c656374696f6e206e6f7420666f756e642e0000000000000000000000600082015250565b600062001c616015836200167d565b915062001c6e8262001c29565b602082019050919050565b6000602082019050818103600083015262001c948162001c52565b9050919050565b600067ffffffffffffffff82111562001cb95762001cb862001491565b5b602082029050602081019050919050565b60008151905062001cdb8162001863565b92915050565b600062001cf862001cf28462001c9b565b620014f6565b9050808382526020820190506020840283018581111562001d1e5762001d1d620019bc565b5b835b8181101562001d4b578062001d36888262001cca565b84526020840193505060208101905062001d20565b5050509392505050565b600082601f83011262001d6d5762001d6c62001476565b5b815162001d7f84826020860162001ce1565b91505092915050565b60006020828403121562001da15762001da06200129d565b5b600082015167ffffffffffffffff81111562001dc25762001dc1620012a2565b5b62001dd08482850162001d55565b91505092915050565b7f636f6c6c656374696f6e4964206e6f7420646566696e65640000000000000000600082015250565b600062001e116018836200167d565b915062001e1e8262001dd9565b602082019050919050565b6000602082019050818103600083015262001e448162001e02565b9050919050565b6000608082019050818103600083015262001e678187620016ba565b9050818103602083015262001e7d8186620016ba565b905062001e8e604083018562001265565b62001e9d606083018462001989565b95945050505050565b60006020828403121562001ebf5762001ebe6200129d565b5b600062001ecf8482850162001cca565b91505092915050565b7f4e487b7100000000000000000000000000000000000000000000000000000000600052601160045260246000fd5b600062001f14826200125b565b91507fffffffffffffffffffffffffffffffffffffffffffffffffffffffffffffffff820362001f495762001f4862001ed8565b5b600182019050919050565b600062001f6b62001f658462001515565b620014f6565b90508281526020810184848401111562001f8a5762001f896200147b565b5b62001f978482856200168e565b509392505050565b600082601f83011262001fb75762001fb662001476565b5b815162001fc984826020860162001f54565b91505092915050565b60006020828403121562001feb5762001fea6200129d565b5b600082015167ffffffffffffffff8111156200200c576200200b620012a2565b5b6200201a8482850162001f9f565b91505092915050565b7f4e487b7100000000000000000000000000000000000000000000000000000000600052603260045260246000fd5b6000815190506200206381620012a7565b92915050565b6000602082840312156200208257620020816200129d565b5b6000620020928482850162002052565b91505092915050565b7f43617264206e6f7420646566696e656400000000000000000000000000000000600082015250565b6000620020d36010836200167d565b9150620020e0826200209b565b602082019050919050565b600060208201905081810360008301526200210681620020c4565b9050919050565b600060608201905062002124600083018662001989565b62002133602083018562001989565b62002142604083018462001265565b949350505050565b6000815190506200215b8162001911565b92915050565b6000602082840312156200217a57620021796200129d565b5b60006200218a848285016200214a565b91505092915050565b6000620021a183856200167d565b9350620021b08385846200154b565b620021bb8362001480565b840190509392505050565b60006080820190508181036000830152620021e381878962002193565b9050620021f4602083018662001265565b62002203604083018562001265565b8181036060830152620022178184620016ba565b90509695505050505050565b600062002230826200125b565b91506200223d836200125b565b925082820390508181111562002258576200225762001ed8565b5b9291505056fe60806040523480156200001157600080fd5b50604051620033ed380380620033ed833981810160405281019062000037919062000241565b836000908162000048919062000532565b508260018190555081600281905550806004908162000068919062000532565b505050505062000619565b6000604051905090565b600080fd5b600080fd5b600080fd5b600080fd5b6000601f19601f8301169050919050565b7f4e487b7100000000000000000000000000000000000000000000000000000000600052604160045260246000fd5b620000dc8262000091565b810181811067ffffffffffffffff82111715620000fe57620000fd620000a2565b5b80604052505050565b60006200011362000073565b9050620001218282620000d1565b919050565b600067ffffffffffffffff821115620001445762000143620000a2565b5b6200014f8262000091565b9050602081019050919050565b60005b838110156200017c5780820151818401526020810190506200015f565b60008484015250505050565b60006200019f620001998462000126565b62000107565b905082815260208101848484011115620001be57620001bd6200008c565b5b620001cb8482856200015c565b509392505050565b600082601f830112620001eb57620001ea62000087565b5b8151620001fd84826020860162000188565b91505092915050565b6000819050919050565b6200021b8162000206565b81146200022757600080fd5b50565b6000815190506200023b8162000210565b92915050565b600080600080608085870312156200025e576200025d6200007d565b5b600085015167ffffffffffffffff8111156200027f576200027e62000082565b5b6200028d87828801620001d3565b9450506020620002a0878288016200022a565b9350506040620002b3878288016200022a565b925050606085015167ffffffffffffffff811115620002d757620002d662000082565b5b620002e587828801620001d3565b91505092959194509250565b600081519050919050565b7f4e487b7100000000000000000000000000000000000000000000000000000000600052602260045260246000fd5b600060028204905060018216806200034457607f821691505b6020821081036200035a5762000359620002fc565b5b50919050565b60008190508160005260206000209050919050565b60006020601f8301049050919050565b600082821b905092915050565b600060088302620003c47fffffffffffffffffffffffffffffffffffffffffffffffffffffffffffffffff8262000385565b620003d0868362000385565b95508019841693508086168417925050509392505050565b6000819050919050565b6000620004136200040d620004078462000206565b620003e8565b62000206565b9050919050565b6000819050919050565b6200042f83620003f2565b620004476200043e826200041a565b84845462000392565b825550505050565b600090565b6200045e6200044f565b6200046b81848462000424565b505050565b5b8181101562000493576200048760008262000454565b60018101905062000471565b5050565b601f821115620004e257620004ac8162000360565b620004b78462000375565b81016020851015620004c7578190505b620004df620004d68562000375565b83018262000470565b50505b505050565b600082821c905092915050565b60006200050760001984600802620004e7565b1980831691505092915050565b6000620005228383620004f4565b9150826002028217905092915050565b6200053d82620002f1565b67ffffffffffffffff811115620005595762000558620000a2565b5b6200056582546200032b565b6200057282828562000497565b600060209050601f831160018114620005aa576000841562000595578287015190505b620005a1858262000514565b86555062000611565b601f198416620005ba8662000360565b60005b82811015620005e457848901518255600182019150602085019450602081019050620005bd565b8683101562000604578489015162000600601f891682620004f4565b8355505b6001600288020188555050505b505050505050565b612dc480620006296000396000f3fe60806040523480156200001157600080fd5b5060043610620000945760003560e01c80637d62013011620000635780637d6201301462000121578063b0df9e531462000143578063ca805ace1462000165578063ded7222b146200019b5762000094565b806306fdde03146200009957806317d7de7c14620000bb5780631b6cde1014620000dd5780635d1ca63114620000ff575b600080fd5b620000a3620001bd565b604051620000b29190620005d9565b60405180910390f35b620000c562000253565b604051620000d49190620005d9565b60405180910390f35b620000e7620002ed565b604051620000f6919062000618565b60405180910390f35b62000109620002f3565b60405162000118919062000618565b60405180910390f35b6200012b620002fd565b6040516200013a919062000618565b60405180910390f35b6200014d62000307565b6040516200015c91906200077d565b60405180910390f35b6200018360048036038101906200017d91906200097c565b62000397565b60405162000192919062000a3d565b60405180910390f35b620001a562000497565b604051620001b49190620005d9565b60405180910390f35b60008054620001cc9062000a89565b80601f0160208091040260200160405190810160405280929190818152602001828054620001fa9062000a89565b80156200024b5780601f106200021f576101008083540402835291602001916200024b565b820191906000526020600020905b8154815290600101906020018083116200022d57829003601f168201915b505050505081565b606060008054620002649062000a89565b80601f0160208091040260200160405190810160405280929190818152602001828054620002929062000a89565b8015620002e35780601f10620002b757610100808354040283529160200191620002e3565b820191906000526020600020905b815481529060010190602001808311620002c557829003601f168201915b5050505050905090565b60015481565b6000600254905090565b6000600154905090565b606060038054806020026020016040519081016040528092919081815260200182805480156200038d57602002820191906000526020600020905b8160009054906101000a900473ffffffffffffffffffffffffffffffffffffffff1673ffffffffffffffffffffffffffffffffffffffff168152602001906001019080831162000342575b5050505050905090565b600060015460038054905010620003e5576040517f08c379a0000000000000000000000000000000000000000000000000000000008152600401620003dc9062000b34565b60405180910390fd5b600085858585604051620003f99062000531565b62000408949392919062000b67565b604051809103906000f08015801562000425573d6000803e3d6000fd5b5090506003819080600181540180825580915050600190039060005260206000200160009091909190916101000a81548173ffffffffffffffffffffffffffffffffffffffff021916908373ffffffffffffffffffffffffffffffffffffffff16021790555080915050949350505050565b606060048054620004a89062000a89565b80601f0160208091040260200160405190810160405280929190818152602001828054620004d69062000a89565b8015620005275780601f10620004fb5761010080835404028352916020019162000527565b820191906000526020600020905b8154815290600101906020018083116200050957829003601f168201915b5050505050905090565b6121cc8062000bc383390190565b600081519050919050565b600082825260208201905092915050565b60005b838110156200057b5780820151818401526020810190506200055e565b60008484015250505050565b6000601f19601f8301169050919050565b6000620005a5826200053f565b620005b181856200054a565b9350620005c38185602086016200055b565b620005ce8162000587565b840191505092915050565b60006020820190508181036000830152620005f5818462000598565b905092915050565b6000819050919050565b6200061281620005fd565b82525050565b60006020820190506200062f600083018462000607565b92915050565b600081519050919050565b600082825260208201905092915050565b6000819050602082019050919050565b600073ffffffffffffffffffffffffffffffffffffffff82169050919050565b6000819050919050565b6000620006ac620006a6620006a08462000661565b62000681565b62000661565b9050919050565b6000620006c0826200068b565b9050919050565b6000620006d482620006b3565b9050919050565b620006e681620006c7565b82525050565b6000620006fa8383620006db565b60208301905092915050565b6000602082019050919050565b6000620007208262000635565b6200072c818562000640565b9350620007398362000651565b8060005b8381101562000770578151620007548882620006ec565b9750620007618362000706565b9250506001810190506200073d565b5085935050505092915050565b6000602082019050818103600083015262000799818462000713565b905092915050565b6000604051905090565b600080fd5b600080fd5b600080fd5b600080fd5b7f4e487b7100000000000000000000000000000000000000000000000000000000600052604160045260246000fd5b620007f98262000587565b810181811067ffffffffffffffff821117156200081b576200081a620007bf565b5b80604052505050565b600062000830620007a1565b90506200083e8282620007ee565b919050565b600067ffffffffffffffff821115620008615762000860620007bf565b5b6200086c8262000587565b9050602081019050919050565b82818337600083830152505050565b60006200089f620008998462000843565b62000824565b905082815260208101848484011115620008be57620008bd620007ba565b5b620008cb84828562000879565b509392505050565b600082601f830112620008eb57620008ea620007b5565b5b8135620008fd84826020860162000888565b91505092915050565b6200091181620005fd565b81146200091d57600080fd5b50565b600081359050620009318162000906565b92915050565b6000620009448262000661565b9050919050565b620009568162000937565b81146200096257600080fd5b50565b60008135905062000976816200094b565b92915050565b60008060008060808587031215620009995762000998620007ab565b5b600085013567ffffffffffffffff811115620009ba57620009b9620007b0565b5b620009c887828801620008d3565b945050602085013567ffffffffffffffff811115620009ec57620009eb620007b0565b5b620009fa87828801620008d3565b935050604062000a0d8782880162000920565b925050606062000a208782880162000965565b91505092959194509250565b62000a3781620006c7565b82525050565b600060208201905062000a54600083018462000a2c565b92915050565b7f4e487b7100000000000000000000000000000000000000000000000000000000600052602260045260246000fd5b6000600282049050600182168062000aa257607f821691505b60208210810362000ab85762000ab762000a5a565b5b50919050565b7f4c65206e6f6d6272652064652063617274657320612061747465696e7420736160008201527f206c696d6974652e000000000000000000000000000000000000000000000000602082015250565b600062000b1c6028836200054a565b915062000b298262000abe565b604082019050919050565b6000602082019050818103600083015262000b4f8162000b0d565b9050919050565b62000b618162000937565b82525050565b6000608082019050818103600083015262000b83818762000598565b9050818103602083015262000b99818662000598565b905062000baa604083018562000607565b62000bb9606083018462000b56565b9594505050505056fe60806040523480156200001157600080fd5b50604051620021cc380380620021cc8339818101604052810190620000379190620004cf565b8360049081620000489190620007c0565b5082600590816200005a9190620007c0565b50816006819055506200007481836200007e60201b60201c565b5050505062000a18565b600073ffffffffffffffffffffffffffffffffffffffff168273ffffffffffffffffffffffffffffffffffffffff1603620000f0576040517f08c379a0000000000000000000000000000000000000000000000000000000008152600401620000e79062000908565b60405180910390fd5b600073ffffffffffffffffffffffffffffffffffffffff1660008083815260200190815260200160002060009054906101000a900473ffffffffffffffffffffffffffffffffffffffff1673ffffffffffffffffffffffffffffffffffffffff161462000194576040517f08c379a00000000000000000000000000000000000000000000000000000000081526004016200018b906200097a565b60405180910390fd5b600160008373ffffffffffffffffffffffffffffffffffffffff1673ffffffffffffffffffffffffffffffffffffffff1681526020019081526020016000206000815480929190620001e690620009cb565b91905055508160008083815260200190815260200160002060006101000a81548173ffffffffffffffffffffffffffffffffffffffff021916908373ffffffffffffffffffffffffffffffffffffffff160217905550808273ffffffffffffffffffffffffffffffffffffffff16600073ffffffffffffffffffffffffffffffffffffffff167fddf252ad1be2c89b69c2b068fc378daa952ba7f163c4a11628f55a4df523b3ef60405160405180910390a45050565b6000604051905090565b600080fd5b600080fd5b600080fd5b600080fd5b6000601f19601f8301169050919050565b7f4e487b7100000000000000000000000000000000000000000000000000000000600052604160045260246000fd5b6200030582620002ba565b810181811067ffffffffffffffff82111715620003275762000326620002cb565b5b80604052505050565b60006200033c6200029c565b90506200034a8282620002fa565b919050565b600067ffffffffffffffff8211156200036d576200036c620002cb565b5b6200037882620002ba565b9050602081019050919050565b60005b83811015620003a557808201518184015260208101905062000388565b60008484015250505050565b6000620003c8620003c2846200034f565b62000330565b905082815260208101848484011115620003e757620003e6620002b5565b5b620003f484828562000385565b509392505050565b600082601f830112620004145762000413620002b0565b5b815162000426848260208601620003b1565b91505092915050565b6000819050919050565b62000444816200042f565b81146200045057600080fd5b50565b600081519050620004648162000439565b92915050565b600073ffffffffffffffffffffffffffffffffffffffff82169050919050565b600062000497826200046a565b9050919050565b620004a9816200048a565b8114620004b557600080fd5b50565b600081519050620004c9816200049e565b92915050565b60008060008060808587031215620004ec57620004eb620002a6565b5b600085015167ffffffffffffffff8111156200050d576200050c620002ab565b5b6200051b87828801620003fc565b945050602085015167ffffffffffffffff8111156200053f576200053e620002ab565b5b6200054d87828801620003fc565b9350506040620005608782880162000453565b92505060606200057387828801620004b8565b91505092959194509250565b600081519050919050565b7f4e487b7100000000000000000000000000000000000000000000000000000000600052602260045260246000fd5b60006002820490506001821680620005d257607f821691505b602082108103620005e857620005e76200058a565b5b50919050565b60008190508160005260206000209050919050565b60006020601f8301049050919050565b600082821b905092915050565b600060088302620006527fffffffffffffffffffffffffffffffffffffffffffffffffffffffffffffffff8262000613565b6200065e868362000613565b95508019841693508086168417925050509392505050565b6000819050919050565b6000620006a16200069b62000695846200042f565b62000676565b6200042f565b9050919050565b6000819050919050565b620006bd8362000680565b620006d5620006cc82620006a8565b84845462000620565b825550505050565b600090565b620006ec620006dd565b620006f9818484620006b2565b505050565b5b81811015620007215762000715600082620006e2565b600181019050620006ff565b5050565b601f82111562000770576200073a81620005ee565b620007458462000603565b8101602085101562000755578190505b6200076d620007648562000603565b830182620006fe565b50505b505050565b600082821c905092915050565b6000620007956000198460080262000775565b1980831691505092915050565b6000620007b0838362000782565b9150826002028217905092915050565b620007cb826200057f565b67ffffffffffffffff811115620007e757620007e6620002cb565b5b620007f38254620005b9565b6200080082828562000725565b600060209050601f83116001811462000838576000841562000823578287015190505b6200082f8582620007a2565b8655506200089f565b601f1984166200084886620005ee565b60005b8281101562000872578489015182556001820191506020850194506020810190506200084b565b868310156200089257848901516200088e601f89168262000782565b8355505b6001600288020188555050505b505050505050565b600082825260208201905092915050565b7f6d696e7420746f207a65726f2061646472657373000000000000000000000000600082015250565b6000620008f0601483620008a7565b9150620008fd82620008b8565b602082019050919050565b600060208201905081810360008301526200092381620008e1565b9050919050565b7f616c7265616479206d696e746564000000000000000000000000000000000000600082015250565b600062000962600e83620008a7565b91506200096f826200092a565b602082019050919050565b60006020820190508181036000830152620009958162000953565b9050919050565b7f4e487b7100000000000000000000000000000000000000000000000000000000600052601160045260246000fd5b6000620009d8826200042f565b91507fffffffffffffffffffffffffffffffffffffffffffffffffffffffffffffffff820362000a0d5762000a0c6200099c565b5b600182019050919050565b6117a48062000a286000396000f3fe608060405234801561001057600080fd5b50600436106100b45760003560e01c80637d615227116100715780637d6152271461019d578063a22cb465146101bb578063a541710c146101d7578063b88d4fde146101f5578063ded7222b14610211578063e985e9c51461022f576100b4565b8063081812fc146100b9578063095ea7b3146100e957806323b872dd1461010557806342842e0e146101215780636352211e1461013d57806370a082311461016d575b600080fd5b6100d360048036038101906100ce9190610e36565b61025f565b6040516100e09190610ea4565b60405180910390f35b61010360048036038101906100fe9190610eeb565b61033c565b005b61011f600480360381019061011a9190610f2b565b610524565b005b61013b60048036038101906101369190610f2b565b6107c4565b005b61015760048036038101906101529190610e36565b6108fc565b6040516101649190610ea4565b60405180910390f35b61018760048036038101906101829190610f7e565b6109a7565b6040516101949190610fba565b60405180910390f35b6101a5610a5e565b6040516101b29190611065565b60405180910390f35b6101d560048036038101906101d091906110bf565b610af0565b005b6101df610bed565b6040516101ec9190610fba565b60405180910390f35b61020f600480360381019061020a9190611164565b610bf7565b005b610219610d35565b6040516102269190611065565b60405180910390f35b610249600480360381019061024491906111ec565b610dc7565b604051610256919061123b565b60405180910390f35b60008073ffffffffffffffffffffffffffffffffffffffff1660008084815260200190815260200160002060009054906101000a900473ffffffffffffffffffffffffffffffffffffffff1673ffffffffffffffffffffffffffffffffffffffff1603610301576040517f08c379a00000000000000000000000000000000000000000000000000000000081526004016102f8906112a2565b60405180910390fd5b6002600083815260200190815260200160002060009054906101000a900473ffffffffffffffffffffffffffffffffffffffff169050919050565b600080600083815260200190815260200160002060009054906101000a900473ffffffffffffffffffffffffffffffffffffffff1690508073ffffffffffffffffffffffffffffffffffffffff163373ffffffffffffffffffffffffffffffffffffffff1614806104335750600360008273ffffffffffffffffffffffffffffffffffffffff1673ffffffffffffffffffffffffffffffffffffffff16815260200190815260200160002060003373ffffffffffffffffffffffffffffffffffffffff1673ffffffffffffffffffffffffffffffffffffffff16815260200190815260200160002060009054906101000a900460ff165b610472576040517f08c379a00000000000000000000000000000000000000000000000000000000081526004016104699061130e565b60405180910390fd5b826002600084815260200190815260200160002060006101000a81548173ffffffffffffffffffffffffffffffffffffffff021916908373ffffffffffffffffffffffffffffffffffffffff160217905550818373ffffffffffffffffffffffffffffffffffffffff168273ffffffffffffffffffffffffffffffffffffffff167f8c5be1e5ebec7d5bd14f71427d1e84f3dd0314c0f7b2291e5b200ac8c7c3b92560405160405180910390a4505050565b60008082815260200190815260200160002060009054906101000a900473ffffffffffffffffffffffffffffffffffffffff1673ffffffffffffffffffffffffffffffffffffffff168373ffffffffffffffffffffffffffffffffffffffff16146105c4576040517f08c379a00000000000000000000000000000000000000000000000000000000081526004016105bb9061137a565b60405180910390fd5b600073ffffffffffffffffffffffffffffffffffffffff168273ffffffffffffffffffffffffffffffffffffffff1603610633576040517f08c379a000000000000000000000000000000000000000000000000000000000815260040161062a906113e6565b60405180910390fd5b600160008473ffffffffffffffffffffffffffffffffffffffff1673ffffffffffffffffffffffffffffffffffffffff168152602001908152602001600020600081548092919061068390611435565b9190505550600160008373ffffffffffffffffffffffffffffffffffffffff1673ffffffffffffffffffffffffffffffffffffffff16815260200190815260200160002060008154809291906106d89061145e565b91905055508160008083815260200190815260200160002060006101000a81548173ffffffffffffffffffffffffffffffffffffffff021916908373ffffffffffffffffffffffffffffffffffffffff1602179055506002600082815260200190815260200160002060006101000a81549073ffffffffffffffffffffffffffffffffffffffff0219169055808273ffffffffffffffffffffffffffffffffffffffff168473ffffffffffffffffffffffffffffffffffffffff167fddf252ad1be2c89b69c2b068fc378daa952ba7f163c4a11628f55a4df523b3ef60405160405180910390a4505050565b6107cf838383610524565b60008273ffffffffffffffffffffffffffffffffffffffff163b14806108b8575063150b7a0260e01b7bffffffffffffffffffffffffffffffffffffffffffffffffffffffff19168273ffffffffffffffffffffffffffffffffffffffff1663150b7a023386856040518463ffffffff1660e01b8152600401610854939291906114dd565b6020604051808303816000875af1158015610873573d6000803e3d6000fd5b505050506040513d601f19601f82011682018060405250810190610897919061157f565b7bffffffffffffffffffffffffffffffffffffffffffffffffffffffff1916145b6108f7576040517f08c379a00000000000000000000000000000000000000000000000000000000081526004016108ee906115f8565b60405180910390fd5b505050565b600080600083815260200190815260200160002060009054906101000a900473ffffffffffffffffffffffffffffffffffffffff169050600073ffffffffffffffffffffffffffffffffffffffff168173ffffffffffffffffffffffffffffffffffffffff16036109a2576040517f08c379a0000000000000000000000000000000000000000000000000000000008152600401610999906112a2565b60405180910390fd5b919050565b60008073ffffffffffffffffffffffffffffffffffffffff168273ffffffffffffffffffffffffffffffffffffffff1603610a17576040517f08c379a0000000000000000000000000000000000000000000000000000000008152600401610a0e90611664565b60405180910390fd5b600160008373ffffffffffffffffffffffffffffffffffffffff1673ffffffffffffffffffffffffffffffffffffffff168152602001908152602001600020549050919050565b606060048054610a6d906116b3565b80601f0160208091040260200160405190810160405280929190818152602001828054610a99906116b3565b8015610ae65780601f10610abb57610100808354040283529160200191610ae6565b820191906000526020600020905b815481529060010190602001808311610ac957829003601f168201915b5050505050905090565b80600360003373ffffffffffffffffffffffffffffffffffffffff1673ffffffffffffffffffffffffffffffffffffffff16815260200190815260200160002060008473ffffffffffffffffffffffffffffffffffffffff1673ffffffffffffffffffffffffffffffffffffffff16815260200190815260200160002060006101000a81548160ff0219169083151502179055508173ffffffffffffffffffffffffffffffffffffffff163373ffffffffffffffffffffffffffffffffffffffff167f17307eab39ab6107e8899845ad3d59bd9653f200f220920489ca2b5937696c3183604051610be1919061123b565b60405180910390a35050565b6000600654905090565b610c02858585610524565b60008473ffffffffffffffffffffffffffffffffffffffff163b1480610cef575063150b7a0260e01b7bffffffffffffffffffffffffffffffffffffffffffffffffffffffff19168473ffffffffffffffffffffffffffffffffffffffff1663150b7a0233888787876040518663ffffffff1660e01b8152600401610c8b959493929190611720565b6020604051808303816000875af1158015610caa573d6000803e3d6000fd5b505050506040513d601f19601f82011682018060405250810190610cce919061157f565b7bffffffffffffffffffffffffffffffffffffffffffffffffffffffff1916145b610d2e576040517f08c379a0000000000000000000000000000000000000000000000000000000008152600401610d25906115f8565b60405180910390fd5b5050505050565b606060058054610d44906116b3565b80601f0160208091040260200160405190810160405280929190818152602001828054610d70906116b3565b8015610dbd5780601f10610d9257610100808354040283529160200191610dbd565b820191906000526020600020905b815481529060010190602001808311610da057829003601f168201915b5050505050905090565b60036020528160005260406000206020528060005260406000206000915091509054906101000a900460ff1681565b600080fd5b600080fd5b6000819050919050565b610e1381610e00565b8114610e1e57600080fd5b50565b600081359050610e3081610e0a565b92915050565b600060208284031215610e4c57610e4b610df6565b5b6000610e5a84828501610e21565b91505092915050565b600073ffffffffffffffffffffffffffffffffffffffff82169050919050565b6000610e8e82610e63565b9050919050565b610e9e81610e83565b82525050565b6000602082019050610eb96000830184610e95565b92915050565b610ec881610e83565b8114610ed357600080fd5b50565b600081359050610ee581610ebf565b92915050565b60008060408385031215610f0257610f01610df6565b5b6000610f1085828601610ed6565b9250506020610f2185828601610e21565b9150509250929050565b600080600060608486031215610f4457610f43610df6565b5b6000610f5286828701610ed6565b9350506020610f6386828701610ed6565b9250506040610f7486828701610e21565b9150509250925092565b600060208284031215610f9457610f93610df6565b5b6000610fa284828501610ed6565b91505092915050565b610fb481610e00565b82525050565b6000602082019050610fcf6000830184610fab565b92915050565b600081519050919050565b600082825260208201905092915050565b60005b8381101561100f578082015181840152602081019050610ff4565b60008484015250505050565b6000601f19601f8301169050919050565b600061103782610fd5565b6110418185610fe0565b9350611051818560208601610ff1565b61105a8161101b565b840191505092915050565b6000602082019050818103600083015261107f818461102c565b905092915050565b60008115159050919050565b61109c81611087565b81146110a757600080fd5b50565b6000813590506110b981611093565b92915050565b600080604083850312156110d6576110d5610df6565b5b60006110e485828601610ed6565b92505060206110f5858286016110aa565b9150509250929050565b600080fd5b600080fd5b600080fd5b60008083601f840112611124576111236110ff565b5b8235905067ffffffffffffffff81111561114157611140611104565b5b60208301915083600182028301111561115d5761115c611109565b5b9250929050565b6000806000806000608086880312156111805761117f610df6565b5b600061118e88828901610ed6565b955050602061119f88828901610ed6565b94505060406111b088828901610e21565b935050606086013567ffffffffffffffff8111156111d1576111d0610dfb565b5b6111dd8882890161110e565b92509250509295509295909350565b6000806040838503121561120357611202610df6565b5b600061121185828601610ed6565b925050602061122285828601610ed6565b9150509250929050565b61123581611087565b82525050565b6000602082019050611250600083018461122c565b92915050565b7f746f6b656e20646f65736e277420657869737400000000000000000000000000600082015250565b600061128c601383610fe0565b915061129782611256565b602082019050919050565b600060208201905081810360008301526112bb8161127f565b9050919050565b7f6e6f7420617574686f72697a6564000000000000000000000000000000000000600082015250565b60006112f8600e83610fe0565b9150611303826112c2565b602082019050919050565b60006020820190508181036000830152611327816112eb565b9050919050565b7f66726f6d20213d206f776e657200000000000000000000000000000000000000600082015250565b6000611364600d83610fe0565b915061136f8261132e565b602082019050919050565b6000602082019050818103600083015261139381611357565b9050919050565b7f7472616e7366657220746f207a65726f20616464726573730000000000000000600082015250565b60006113d0601883610fe0565b91506113db8261139a565b602082019050919050565b600060208201905081810360008301526113ff816113c3565b9050919050565b7f4e487b7100000000000000000000000000000000000000000000000000000000600052601160045260246000fd5b600061144082610e00565b91506000820361145357611452611406565b5b600182039050919050565b600061146982610e00565b91507fffffffffffffffffffffffffffffffffffffffffffffffffffffffffffffffff820361149b5761149a611406565b5b600182019050919050565b600082825260208201905092915050565b50565b60006114c76000836114a6565b91506114d2826114b7565b600082019050919050565b60006080820190506114f26000830186610e95565b6114ff6020830185610e95565b61150c6040830184610fab565b818103606083015261151d816114ba565b9050949350505050565b60007fffffffff0000000000000000000000000000000000000000000000000000000082169050919050565b61155c81611527565b811461156757600080fd5b50565b60008151905061157981611553565b92915050565b60006020828403121561159557611594610df6565b5b60006115a38482850161156a565b91505092915050565b7f756e7361666520726563697069656e7400000000000000000000000000000000600082015250565b60006115e2601083610fe0565b91506115ed826115ac565b602082019050919050565b60006020820190508181036000830152611611816115d5565b9050919050565b7f6f776e6572203d207a65726f2061646472657373000000000000000000000000600082015250565b600061164e601483610fe0565b915061165982611618565b602082019050919050565b6000602082019050818103600083015261167d81611641565b9050919050565b7f4e487b7100000000000000000000000000000000000000000000000000000000600052602260045260246000fd5b600060028204905060018216806116cb57607f821691505b6020821081036116de576116dd611684565b5b50919050565b82818337600083830152505050565b60006116ff83856114a6565b935061170c8385846116e4565b6117158361101b565b840190509392505050565b60006080820190506117356000830188610e95565b6117426020830187610e95565b61174f6040830186610fab565b81810360608301526117628184866116f3565b9050969550505050505056fea2646970667358221220616c8cfdafc2377b47133c86a1295d29653f21036e5d149e5c947c0c074195b964736f6c63430008100033a2646970667358221220415542fcabcf340f7926459f8666cd4ca4e005d671a36d1c2a2495d64789395b64736f6c63430008100033a264697066735822122083b7e256097e3b2ceb851e3f37df5468932835e8ba6b6c83bf1bff223296d7ac64736f6c63430008100033",
  "devdoc": {
    "kind": "dev",
    "methods": {},
    "version": 1
  },
  "userdoc": {
    "kind": "user",
    "methods": {},
    "version": 1
  },
  "storageLayout": {
    "storage": [
      {
        "astId": 731,
        "contract": "src/Main.sol:Main",
        "label": "owner",
        "offset": 0,
        "slot": "0",
        "type": "t_address"
      },
      {
        "astId": 733,
        "contract": "src/Main.sol:Main",
        "label": "count",
        "offset": 0,
        "slot": "1",
        "type": "t_uint256"
      },
      {
        "astId": 735,
        "contract": "src/Main.sol:Main",
        "label": "cardCount",
        "offset": 0,
        "slot": "2",
        "type": "t_uint256"
      },
      {
        "astId": 740,
        "contract": "src/Main.sol:Main",
        "label": "collections",
        "offset": 0,
        "slot": "3",
        "type": "t_mapping(t_uint256,t_contract(Collection)726)"
      },
      {
        "astId": 745,
        "contract": "src/Main.sol:Main",
        "label": "cards",
        "offset": 0,
        "slot": "4",
        "type": "t_mapping(t_uint256,t_contract(Card)597)"
      }
    ],
    "types": {
      "t_address": {
        "encoding": "inplace",
        "label": "address",
        "numberOfBytes": "20"
      },
      "t_contract(Card)597": {
        "encoding": "inplace",
        "label": "contract Card",
        "numberOfBytes": "20"
      },
      "t_contract(Collection)726": {
        "encoding": "inplace",
        "label": "contract Collection",
        "numberOfBytes": "20"
      },
      "t_mapping(t_uint256,t_contract(Card)597)": {
        "encoding": "mapping",
        "key": "t_uint256",
        "label": "mapping(uint256 => contract Card)",
        "numberOfBytes": "32",
        "value": "t_contract(Card)597"
      },
      "t_mapping(t_uint256,t_contract(Collection)726)": {
        "encoding": "mapping",
        "key": "t_uint256",
        "label": "mapping(uint256 => contract Collection)",
        "numberOfBytes": "32",
        "value": "t_contract(Collection)726"
      },
      "t_uint256": {
        "encoding": "inplace",
        "label": "uint256",
        "numberOfBytes": "32"
      }
    }
  }
}